:08000000803102288731F42F42
:1008080016302100970008002000110E890C0139CC
:10081800080071082000B6007008B50008007108CB
:100828002000BA007008B900080071082000B8005C
:100838007008B7000800640080010131890B202C82
:100848000034F0002000111E2A2C2B2C262C7008B6
:1008580023009A000800F7007630F000F101F10A51
:10086800770885314B2584310800F6007608F000BA
:10087800F101F10A77308431E524843177080800E2
:1008880070302100990098012200960121001A1F5A
:100898004E2C4F2C4A2C0800843181248431843119
:1008A800442484318431042484318431992484316A
:1008B80008002000911E612C622C5D2CBE012300D3
:1008C8009D1C672C682C6A2C1D121D16190808001F
:1008D800F300F201731C712C722C762C7008F10055
:1008E8007108F2070310F00D0310F30C7308031DD1
:1008F8007E2C7F2C6E2C7208080022008C018D0142
:10090800FF3021008C00FF308D00DA3023008D008D
:100918001F308C0024008D018C0121009517803038
:1009280022009D0001309E000800083023009F002F
:1009380090309D0024309E008A309B009C0100303E
:10094800F0000030F1008431132484310030F000CD
:100958000030F1008431192484310030F000003077
:10096800F10084310D2484312000BE010800F60115
:10097800D02C7208F4007108F3007608730784001D
:1009880074080318740A850000088431252484310A
:100998000130F3007308F6077208F4007108F300D9
:1009A80076087307840074080318740A8500120017
:1009B800031DDF2CE02CBD2C0D308431252484311F
:1009C8000800F5007508F40023009518EC2CED2CB0
:1009D800E82C7008F200F301720891007308920085
:1009E8000B2D9518F82CF92CF52C7F30F200720895
:1009F80095051514740886008701130881000130D5
:100A0800F2007208F407013091070030923D01307E
:100A1800F102710A031D112D122DF52C08008431E5
:100A280050248531843108248531003A03191D2D5D
:100A38001E2D162D84315D248531FC004C307C063A
:100A48000319272D282D3A2D41307C0603192D2D09
:100A58002E2D3A2D50307C060319332D342D3A2D86
:100A680052307C06031D392D3A2D3E2D7C0820007E
:100A7800BC00162D0D307C06031D432D442D482D3A
:100A88008631D3268531162D162D80310228F500A2
:100A98007008F40023009518522D532D4E2D75081B
:100AA800FF3EF200FF3003180030F3007208910097
:100AB800730892007F30F200720895058B2D230091
:100AC8009518672D682D632D740886008701010825
:100AD80093000130F2007208F407013091070030EA
:100AE800923D200003108B1F7A2D7B2D7C2D031443
:100AF8008B132300151555309600AA3096009514CF
:100B080015112000031C892D8A2D8B2D8B17013080
:100B1800F102710A031D912D922D632D0800FA012F
:100B28002000BD01EA30F1008830F2008431BB2496
:100B38008531BC2D843108248531003A0319A52D4F
:100B4800A62DBC2D84315D248531F9000D30790640
:100B5800031DAF2DB02DB12DC32D20003D08203E23
:100B680086008701790881000130F8007808BD0700
:100B7800143020003D02031CC22DC32D9E2D2000E1
:100B88003D08203E8600870181012008031DCD2DE8
:100B9800CE2DE32DBB01BB0A5830F1008830F2009E
:100BA8008431BB248531F6011630F0007D0884318C
:100BB8006C248531003E84312F248531132EBB01EE
:100BC800BE30F1008830F2008431BB248531012E1B
:100BD8007A08203E860087010108F6001630F000EA
:100BE8007D0884316C248531013E7A0784312F24B5
:100BF80085310130F8007808FA0715307A02031CAD
:100C0800062E072EEC2DF601F60A1630F0007D08A8
:100C180084316C248531003E84312F2485310800CD
:100C28002000C301C4011630F000200043088431BD
:100C38006C248631003E843139248631023A031D02
:100C4800262E272E6C2E58308431252486312030CC
:100C58008431252486312000BF01C001482E16307A
:100C6800F0002000430884316C248631013E2000C6
:100C78003F07843139248631843125248631013077
:100C88002000BF070030C03D4008803AF80080309F
:100C98007802031D512E14303F020318542E552E8E
:100CA800672E1630F0002000430884316C2486310A
:100CB800013E20003F07843139248631003A031D64
:100CC800662E672E332E0D30843125248631C02EB2
:100CD8001630F0002000430884316C248631003E31
:100CE800843139248631013A031D7B2E7C2EC02E97
:100CF80020308431252486312030843125248631E2
:100D08002000C101C2019D2E1630F00020004308CA
:100D180084316C248631013E200041078431392416
:100D2800863184312524863101302000C107003006
:100D3800C23D4208803AF80080307802031DA62E92
:100D4800143041020318A92EAA2EBC2E1630F0002A
:100D58002000430884316C248631013E200041077D
:100D6800843139248631003A031DBB2EBC2E882ECF
:100D78000D3084312524863101302000C30700302E
:100D8800C43D4408803AF80080307802031DCE2E16
:100D98000B304302031CD12ED22E172E08004C30E4
:100DA80020003C06031DD92EDA2EF62E00308431A1
:100DB80039248631003A031DE22EE32EEB2EA230B1
:100DC800F1008830F2008431BB248631172FD430EB
:100DD800F1008830F2008431BB2486318631142634
:100DE8008631172F41303C06031DFB2EFC2E172F92
:100DF8000A307D020318012F022F102F8531932509
:100E0800863120003B08031D0A2F0B2F172F0130B6
:100E1800FB007B08FD07172F7E30F1008830F200B9
:100E28008431BB248631503020003C06031D1D2F21
:100E38001E2FC42FC901CA01B62F1630F00020009A
:100E4800490884316C248631003E84313924863146
:100E5800013A031D302F312F8A2FF930F1008830E5
:100E6800F2008431BB248631203084312524863138
:100E780020308431252486312000C501C601592F30
:100E88001630F0002000490884316C248631013E78
:100E98002000450784313924863184312524863160
:100EA80001302000C5070030C63D4608803AFB00E7
:100EB80080307B02031D622F143045020318652F12
:100EC800662F782F1630F0002000490884316C24F2
:100ED8008631013E20004507843139248631003AA5
:100EE800031D772F782F442F0D3084312524863128
:100EF8000230F6001630F0002000490884316C24D6
:100F08008631003E84312F248631F32F1630F000CD
:100F18002000490884316C248631003E843139240C
:100F28008631003A031D992F9A2FA22FA230F10083
:100F38008830F2008431BB248631F32F0A30200038
:100F480049064A04031DA92FAA2FB12F3230F100F8
:100F58008830F2008431BB24863101302000C90773
:100F68000030CA3D4A08803AFB0080307B02031DEE
:100F7800BF2F0B304902031CC22FC32F212FF32F81
:100F880052303C06031DC92FCA2FEC2FC701C801D8
:100F9800F6011630F0002000470884316C248631B1
:100FA800003E84312F24863101302000C7070030ED
:100FB800C83D4808803AFB0080307B02031DE62FBD
:100FC8000B304702031CE92FEA2FCC2FFD019A2F83
:100FD8000030F1008830F2008431BB2486310800EB
:100FE800FD0120308400003085001F3084311F242B
:100FF800873120008531132D4C342D344534783415
:1010080069346234653420346C346934733474342C
:1010180061342C34203441342D3441346734653400
:101028006E34643461342C34203450342D345034CC
:1010380072346F34783469346D346F342C3420341E
:1010480052342D344134703461346734613420347F
:101058006C346934733474346134003454346F3408
:1010680064346F34733420346F347334203461340F
:10107800673465346E34643461346D3465346E3489
:1010880074346F347334203466346F34723461349A
:101098006D3420346134743465346E3464346934A6
:1010A80064346F34733400344E3461346F34203414
:1010B80066346F346934203470346F347334733465
:1010C8006934763465346C3420346134673465347B
:1010D8006E34643461347234203428346E346F349E
:1010E8006D3465342034763461347A3469346F343D
:1010F800293400344E3461346F3420346434693414
:10110800733470346F346E3465346D346F347334C3
:1011180020346434653420346D3461346934733474
:1011280020346134673465346E34643461346D342A
:1011380065346E3474346F34733400344C34693429
:101148007334743461342034643465342034613445
:10115800673465346E34643461346D3465346E34A8
:1011680074346F3473342034763461347A346934A7
:10117800613400344134673465346E346434613426
:101188006D3465346E3474346F342034723465349D
:1011980061346C3469347A34613464346F340034C3
:1011A8004C346934733474346134203464346534B1
:1011B80020346134673465346E34643461346D349A
:1011C80065346E3474346F347334003444346934A1
:1011D800673469347434653420346F3420346E34A1
:1011E8006F346D3465343A340034503472346F34AB
:0C11F800783469346D346F343A340034BC
:020000040001F9
:04000E00E43FFF3F8D
:10E000000000000000000000000000000000000010
:10E010000000000000000000000000000000000000
:10E0200000000000000000000000000000000000F0
:10E0300000000000000000000000000000000000E0
:10E0400000000000000000000000000000000000D0
:10E0500000000000000000000000000000000000C0
:10E0600000000000000000000000000000000000B0
:10E0700000000000000000000000000000000000A0
:10E080000000000000000000000000000000000090
:10E090000000000000000000000000000000000080
:10E0A0000000000000000000000000000000000070
:10E0B0000000000000000000000000000000000060
:10E0C0000000000000000000000000000000000050
:10E0D0000000000000000000000000000000000040
:10E0E0000000000000000000000000000000000030
:10E0F0000000000000000000000000000000000020
:10E10000000000000000000000000000000000000F
:10E1100000000000000000000000000000000000FF
:10E1200000000000000000000000000000000000EF
:10E1300000000000000000000000000000000000DF
:10E1400000000000000000000000000000000000CF
:10E1500000000000000000000000000000000000BF
:10E1600000000000000000000000000000000000AF
:10E17000000000000000000000000000000000009F
:10E18000000000000000000000000000000000008F
:10E19000000000000000000000000000000000007F
:10E1A000000000000000000000000000000000006F
:08E1B000000000000000000067
:00000001FF
