:08000000803102288731F42F42
:1008680016302100970008002000110E890C01396C
:10087800080071082000B6007008B500080071086B
:100888002000BA007008B900080071082000B800FC
:100898007008B7000800640080010131890B502CF2
:1008A8000034F0002000111E5A2C5B2C562C7008C6
:1008B80023009A000800F7007630F000F101F10AF1
:1008C800770885317B2584310800F6007608F0002A
:1008D800F101F10A77308531152584317708080050
:1008E80070302100990098012200960121001A1FFA
:1008F8007E2C7F2C7A2C08008431B12484318431F9
:10090800742484318431342484318431C924843179
:1009180008002000911E912C922C8D2CBE012300E2
:100928009D1C972C982C9A2C1D121D16190808002E
:10093800F300F201731CA12CA22CA62C7008F10064
:100948007108F2070310F00D0310F30C7308031D70
:10095800AE2CAF2C9E2C7208080022008C018D0151
:10096800FF3021008C00FF308D00DA3023008D002D
:100978001F308C0024008D018C01210095178030D8
:1009880022009D0001309E000800083023009F00CF
:1009980090309D0024309E008A309B009C010030DE
:1009A800F0000030F1008431432484310030F0003D
:1009B8000030F1008431492484310030F0000030E7
:1009C800F10084313D2484312000BE010800F60185
:1009D800002D7208F4007108F3007608730784008C
:1009E80074080318740A850000088431552484317A
:1009F8000130F3007308F6077208F4007108F30079
:100A080076087307840074080318740A85001200B6
:100A1800031D0F2D102DED2C0D30843155248431FC
:100A28000800F5007508F400230095181C2D1D2DED
:100A3800182D7008F200F3017208910073089200F3
:100A48003B2D9518282D292D252D7F30F200720871
:100A58009505151474088600870113088100013074
:100A6800F2007208F407013091070030923D01301E
:100A7800F102710A031D412D422D252D08008431F4
:100A880080248531843138248531003A03194D2D6D
:100A98004E2D462D84318D248531FC004C307C064A
:100AA8000319572D582D6A2D41307C0603195D2DE9
:100AB8005E2D6A2D50307C060319632D642D6A2D36
:100AC80052307C06031D692D6A2D6E2D7C0820008E
:100AD800BC00462D0D307C06031D732D742D782D1A
:100AE8008631E5268531462D462D80310228F500D0
:100AF8007008F40023009518822D832D7E2D75082B
:100B0800FF3EF200FF3003180030F3007208910036
:100B1800730892007F30F20072089505BB2D230000
:100B28009518972D982D932D740886008701010834
:100B380093000130F2007208F40701309107003089
:100B4800923D200003108B1FAA2DAB2DAC2D031452
:100B58008B132300151555309600AA30960095146E
:100B680015112000031CB92DBA2DBB2D8B17013090
:100B7800F102710A031DC12DC22D932D0800FA013F
:100B88002000BD01D430F1008830F2008431EB241C
:100B98008531EC2D843138248531003A0319D52D5F
:100BA800D62DEC2D84318D248531F9000D30790650
:100BB800031DDF2DE02DE12DF32D20003D08203E03
:100BC80086008701790881000130F8007808BD07A0
:100BD800143020003D02031CF22DF32DCE2D2000F1
:100BE8003D08203E8600870181012008031DFD2D58
:100BF800FE2D082EBB01BB0A5830F1008830F200E8
:100C08008431EB248531252EBB011F2E7A08203E26
:100C1800860087010108F6001630F0007D0884314F
:100C28009C248531013E7A0784315F248531013067
:100C3800F8007808FA0715307A02031C242E252EAE
:100C48000A2E08002000C301C4011630F00020005D
:100C5800430884319C248631003E843169248631DE
:100C6800023A031D382E392E7E2E20308431552429
:100C7800863158308431552486312000BF01C001A7
:100C88005A2E1630F0002000430884319C24863107
:100C9800013E20003F078431692486318431552480
:100CA800863101302000BF070030C03D4008803A3F
:100CB800F80080307802031D632E14303F020318B9
:100CC800662E672E792E1630F000200043088431F6
:100CD8009C248631013E20003F07843169248631F7
:100CE800003A031D782E792E452E0D308431552477
:100CF8008631D22E1630F0002000430884319C241F
:100D08008631003E843169248631013A031D8D2ED7
:100D18008E2ED22E203084315524863120308431D5
:100D2800552486312000C101C201AF2E1630F000D3
:100D38002000430884319C248631013E200041076D
:100D4800843169248631843155248631013020006C
:100D5800C1070030C23D4208803AF800803078026E
:100D6800031DB82E143041020318BB2EBC2ECE2E04
:100D78001630F0002000430884319C248631013E5F
:100D880020004107843169248631003A031DCD2EA5
:100D9800CE2E9A2E0D308431552486310130200014
:100DA800C3070030C43D4408803AF8008030780218
:100DB800031DE02E0B304302031CE32EE42E292EE4
:100DC80008004C3020003C06031DEB2EEC2EFB2EB9
:100DD800BE30F1008830F2008431EB248631863150
:100DE800262686310D30843155248631292F41300D
:100DF8003C06031D002F012F292F0A307D020318FE
:100E0800062F072F212F8531C3258631F601F60AD3
:100E18001630F0007D0884319C248631003E8431F0
:100E28005F24863120003B08031D1B2F1C2F292F10
:100E38000130FB007B08FD07292F7E30F100883048
:100E4800F2008431EB248631292F503020003C06F3
:100E5800031D2F2F302FBE2FC901CA01B02F163006
:100E6800F0002000490884319C248631003E8431FA
:100E780069248631013A031D422F432F9C2FE3300A
:100E8800F1008830F2008431EB248631203084313F
:100E98005524863120308431552486312000C501FF
:100EA800C6016B2F1630F0002000490884319C24BD
:100EB8008631013E2000450784316924863184311A
:100EC8005524863101302000C5070030C63D46084C
:100ED800803AFB0080307B02031D742F14304502DA
:100EE8000318772F782F8A2F1630F0002000490832
:100EF80084319C248631013E2000450784316924D1
:100F08008631003A031D892F8A2F562F0D308431E0
:100F1800552486310230F6001630F00020004908CA
:100F280084319C248631003E84315F248631F32F3E
:100F38000A30200049064A04031DA32FA42FAB2F13
:100F48003230F1008830F2008431EB2486310130F0
:100F58002000C9070030CA3D4A08803AFB008030AB
:100F68007B02031DB92F0B304902031CBC2FBD2F78
:100F7800332FF32F52303C06031DC32FC42FEC2F01
:100F8800C701C801F6011630F00020004708843177
:100F98009C248631003E84315F2486310130200054
:100FA800C7070030C83D4808803AFB0080307B0204
:100FB800031DE02F0B304702031CE32FE42FC62F3D
:100FC800A230F1008830F2008431EB248631F32F0F
:100FD8000030F1008830F2008431EB2486310800BB
:100FE800FD0120308400003085001F3084314F24FB
:100FF800873120008531432D4C342D3445347834E5
:1010080069346234653420346C346934733474342C
:1010180061342C34203441342D3441346734653400
:101028006E34643461342C34203450342D345034CC
:1010380072346F34783469346D346F342C3420341E
:1010480052342D344134703461346734613420347F
:101058006C346934733474346134003454346F3408
:1010680064346F34733420346F347334203461340F
:10107800673465346E34643461346D3465346E3489
:1010880074346F347334203466346F34723461349A
:101098006D3420346134743465346E3464346934A6
:1010A80064346F34733400344E3461346F34203414
:1010B80066346F346934203470346F347334733465
:1010C8006934763465346C3420346134673465347B
:1010D8006E34643461347234203428346E346F349E
:1010E8006D3465342034763461347A3469346F343D
:1010F800293400344E3461346F3420346434693414
:10110800733470346F346E3465346D346F347334C3
:1011180020346434653420346D3461346934733474
:1011280020346134673465346E34643461346D342A
:1011380065346E3474346F34733400344C34693429
:101148007334743461342034643465342034613445
:10115800673465346E34643461346D3465346E34A8
:1011680074346F3473342034763461347A346934A7
:10117800613400344C346934733474346134203449
:101188006434653420346134673465346E346434CF
:1011980061346D3465346E3474346F3473340034B0
:1011A80044346934673469347434653420346F34B2
:1011B80020346E346F346D3465343A34003450342E
:1011C80072346F34783469346D346F343A3400349F
:020000040001F9
:04000E00E43FFF3F8D
:10E000000000000000000000000000000000000010
:10E010000000000000000000000000000000000000
:10E0200000000000000000000000000000000000F0
:10E0300000000000000000000000000000000000E0
:10E0400000000000000000000000000000000000D0
:10E0500000000000000000000000000000000000C0
:10E0600000000000000000000000000000000000B0
:10E0700000000000000000000000000000000000A0
:10E080000000000000000000000000000000000090
:10E090000000000000000000000000000000000080
:10E0A0000000000000000000000000000000000070
:10E0B0000000000000000000000000000000000060
:10E0C0000000000000000000000000000000000050
:10E0D0000000000000000000000000000000000040
:10E0E0000000000000000000000000000000000030
:10E0F0000000000000000000000000000000000020
:10E10000000000000000000000000000000000000F
:10E1100000000000000000000000000000000000FF
:10E1200000000000000000000000000000000000EF
:10E1300000000000000000000000000000000000DF
:10E1400000000000000000000000000000000000CF
:10E1500000000000000000000000000000000000BF
:10E1600000000000000000000000000000000000AF
:10E17000000000000000000000000000000000009F
:10E18000000000000000000000000000000000008F
:10E19000000000000000000000000000000000007F
:10E1A000000000000000000000000000000000006F
:08E1B000000000000000000067
:00000001FF
