:08000000803102288731FB2F3B
:100F42008430220097000800163021009700080024
:100F5200953022009100E130920008000230250015
:100F620093009201910108008731E5278731B82F5C
:100F720080310228603021009900980122009601F8
:100F82000800C2302000990097019601111017083D
:100F9200F1001608F00001309800080022008C01D0
:100FA2008D01FF3021008C00F7308D00F6302300D8
:100FB2008D001F308C0024008D018C0121009517BB
:100FC20022009D019E0108008731CF27873187319A
:100FD200BB2787318731A52787318731AF278731F3
:100FE2008731A12787318731A92787318731C227E6
:0E0FF20087310800F001F10120008731B52F92
:020000040001F9
:04000E00E43FFF3E8E
:00000001FF
