:1002000003178316880103178316890103138316C6
:1002100081130313831685018701FF308600880050
:1002200001308900031383120608F0000808F1006A
:1002300064000311880803193F2909182F29222176
:10024000432112297008F3006400640071087302EE
:10025000031C2E29F20A7108F30225290800640004
:10026000F301F2010830F4008301F00DF30D710881
:1002700073020318F300F20DF40B342943298501AE
:100280008608870089140313831272088500730897
:1002900087008312031304308A00F20E0F307205B8
:1002A0000024A000F20E0F3072050024A100F30E0E
:1002B0000F3073050024A200F30E0F3073050024E5
:0802C000A300F201F3010800A4
:10080000820730343134323433343434353436348E
:100810003734383439344134423443344434453441
:0208200046345C
:060FFA000A128A11002911
:04400E00FC3FFF3F35
:00000001FF
