:08000000803102288731F22F44
:10035200833022009700080071082000E500700831
:10036200E400080071082000E3007008E2000800C1
:1003720071082000E1007008E000080060302100F0
:1003820099002200960121009801080006302500FC
:10039200930092019101FC309E050800250011088E
:1003A200F2001208F3007308F1007208F00008006E
:1003B200033021009E009B019C0105309D0020001E
:1003C200111308008B10210015170030F0000030C7
:1003D200F1008131AD21813108000C3025009A00F5
:1003E2009C019B0101309D0099019801F3309E050B
:1003F20008000030200011190130F00070080319C4
:10040200032A042A052A111170080800FF3020006F
:100412009B009A01911004309C000030F0000030E3
:10042200F1008131B9218231080020009901970140
:1004320096011708ED001608EC000030F0000030BD
:10044200F1008131B321823120001110911331303A
:1004520098000800F3007308F200F20DF20D21007B
:100462001D087206833972069D001D140032210098
:100472009D149D183D2A3E2A3A2A1C08F1001B08A9
:10048200F0000800FF30F0050330F1057108F300B9
:100492007008F200F336F20CF336F20C7208250003
:1004A200980070080339F2000430F235890B562A9D
:1004B2001A08CF3972049A0008008131BF218231B3
:1004C20082317A2282318131D92182318131C7212F
:1004D20082318131EE2182318131A9218231823111
:1004E200162282318231072282318131E321823127
:1004F200080022008C018D017F3021008C00FF302A
:100502008D001F3023008C00FE308D00203024002F
:100512008C00FF308D0021009513093022009D00D0
:1005220027009401950196018B150800F800F4014B
:10053200F5017008F200F3017208F6007308F70083
:10054200781CA42AA52AA92A7608F4077708F53D7B
:100552000130F635F70D890BAA2A0310F80C78083A
:10056200031DB42AB52AA12A7508F1007408F00007
:10057200080020005F087D02031DC12A5E087C027C
:100582000318C42AC52ADA2A7C08143EF400003073
:100592007D3DF50003307502FF3003197402031824
:1005A200D32AD42ADA2A7C08143EFC0000307D3D8E
:1005B200FD007D085F02031DE02A7C085E0203182D
:1005C200E32AE42AF62A7C08EC3EF400FF307D3D63
:1005D200F500740875040319EF2AF02AF62A7C083C
:1005E200EC3EFC00FF307D3DFD007D08F1007C0803
:1005F200F000823143228231080082315E22823150
:100602008B170B17013082312B22823171082000A7
:10061200DF007008DE008231BA2282318131FA2194
:100622008231003A0319162B172B032B3730200087
:10063200A9008630A8003730A700BD30A60081315E
:10064200CF21823170082000DA007108DB00DC0162
:10065200DD015D08F7005C08F6005B08F5005A084A
:10066200F400003083316223823177082000AD002C
:100672007608AC007508AB007408AA008531B7256E
:10068200823120002908C3002808C2002708C100BF
:100692002608C0004230C7007030C6000030C500D6
:1006A2000030C40084310D24823120004308E90067
:1006B2004208E8004108E7004008E600032B8031C9
:1006C20002282000A00020080319682B692B7D2B2B
:1006D200F71F6C2B6D2B7D2B7409A2007509A300EB
:1006E2007609A4007709A500A20A0319A30A03192F
:1006F200A40A0319A50A852B7708A5007608A40089
:100702007508A3007408A2007708760475047404BF
:10071200031D8C2B8D2B962B0030F7000030F6003A
:100722000030F5000030F4000C2C9630A100A42B10
:100732000130F8007808A1070130A536A40CA30CFB
:10074200A20C890B9E2BFE302505031DA92BAA2B7B
:10075200992BBE2B0130F8007808A1070130A207BF
:100762000030A33D0030A43D0030A53D0130A53648
:10077200A40CA30CA20C890BB82BFF302505031D7A
:10078200C32BC42BAB2BCE2B0130A1020130A235DF
:10079200A30DA40DA50D890BC82BA41BD12BD22B05
:1007A200D82B023021020318D72BD82BC52B2118A6
:1007B200DB2BDC2BE42BFF30A205FF30A3057F30BF
:1007C200A405FF30A5050310A10C2108F800F901CA
:1007D200FA01FB011830F835F90DFA0DFB0D890B02
:1007E200EC2B7808A2047908A3047A08A4047B08F5
:1007F200A50420080319FE2BFF2B042CF71F022C43
:10080200032C042CA5172508F7002408F60023085A
:10081200F5002208F4000800200047088039D100C2
:100822004735D800C61F162C172C182C58145808F8
:1008320003191C2C1D2C2D2C580A031D212C222C93
:100842002A2C0030C7000030C6000030C50000303E
:10085200C400C617C701352C0030C7000030C600DF
:100862000030C5000030C40043088039C800480881
:10087200D1064335D900C21F3F2C402C412C5914BC
:1008820059080319452C462C562C590A031D4A2C8B
:100892004B2C532C0030C3000030C2000030C1008A
:1008A2000030C000C217C3015E2C0030C30000300C
:1008B200C2000030C1000030C000430842044104BD
:1008C2004004031D652C662C7F2C0030C7000030CD
:1008D200C6000030C5000030C4008030C6047F303E
:1008E200C7045108C8004808C7044708C30046089F
:1008F200C2004508C1004408C000B62D5808031DB7
:10090200832C842C8D2C0030C3000030C2000030B8
:10091200C1000030C000B62D5808C800C9014908FE
:10092200CB0059084802CA00031CCB034A087F3E89
:10093200D20000304B3DD3004708D0004608CF001C
:100942004508CE004408CD000030C7000030C60084
:100952000030C5000030C4000030D7000030D6009F
:100962000030D5000030D400D901F52C5908031904
:10097200BB2CBC2CD62C0130CD35CE0DCF0DD00DDD
:10098200890BBD2C0130C435C50DC60DC70D890BB1
:10099200C42CD71FCD2CCE2CCF2C44140130D435EF
:1009A200D50DD60DD70D890BD02C43085002031D4F
:1009B200E42C42084F02031DE42C41084E02031DA1
:1009C200E42C40084D02031CE72CE82CF12C5717AD
:1009D2004008CD024108CE3B4208CF3B4308D03B02
:1009E2000130C8004808D9071A305902031CFA2CF2
:1009F200FB2CB72C50084F044E044D040319022D52
:100A0200032D1C2D54141C2D0130C435C50DC60DEB
:100A1200C70D890B062DD71F0F2D102D112D441434
:100A22000130D435D50DD60DD70D890B122DFF30DF
:100A3200D207FF30D33DC61F1F2D202D052DD90112
:100A4200D71F242D252D412DFF305405C800FF301E
:100A52005505C900FF305605CA007F305705CB0047
:100A62004B084A04490448040319382D392D3C2DFA
:100A7200D901D90A412D441C3F2D402D412D392D3C
:100A820059080319452D462D6E2D0130C40700303B
:100A9200C53D0030C63D0030C73D471C512D522D8B
:100AA2006E2D4408C8004508C9004608CA00470818
:100AB200CB000130CC00CB37CA0CC90CC80CCC0B14
:100AC2005C2D4B08C7004A08C6004908C500480803
:100AD200C4000130D2070030D33D5308803AC80029
:100AE20080304802031D772DFF305202031C7A2DFD
:100AF2007B2D882DFF302000D2000030D300003043
:100B0200C7000030C6000030C5000030C40020001D
:100B12005308803AC80080304802031D922D0130EC
:100B220052020318952D962DA22D2000D201D30139
:100B32000030C7000030C6000030C5000030C400DD
:100B4200D10120005208D800581CA82DA92DAB2D88
:100B5200C617AF2D7F30C8004808C6055836C700F3
:100B62005108C8004808C704762C0800200029084C
:100B72008039B3002935B900A81FC02DC12DC22D5F
:100B8200391439080319C62DC72DD62D390A031D6C
:100B9200CB2DCC2DD42D0030A9000030A800003080
:100BA200A7000030A600A817DE2D0030A9000030F3
:100BB200A8000030A7000030A6002D088039AE0042
:100BC2002E08B3062D35B800AC1FE82DE92DEA2D0D
:100BD200381438080319EE2DEF2DFE2D380A031DA7
:100BE200F32DF42DFC2D0030AD000030AC000030B0
:100BF200AB000030AA00AC17062E0030AD0000306A
:100C0200AC000030AB000030AA00380803190A2EED
:100C12000B2E102E3908031D0F2E102E192E003008
:100C2200A9000030A8000030A7000030A600F12F74
:100C32002608F0002C0882319722853171082000A5
:100C4200BF007008BE003E08AE00AF01B001B101A6
:100C52003108B7003008B6002F08B5002E08B400DE
:100C62003F08AE00AF01B001B1013108BD0030084C
:100C7200BC002F08BB002E08BA002708F0002B0882
:100C820082319722853171082000BF007008BE00B2
:100C92003E08AE00AF01B001B1012E08B4072F0823
:100CA200B53D3008B63D3108B73D3F08AE00AF0153
:100CB200B001B1012E08BA072F08BB3D3008BC3D78
:100CC2003108BD3D2808F0002A088231972285317B
:100CD20071082000BF007008BE003E08AE00AF01E0
:100CE200B001B1012E08B4072F08B53D3008B63D5A
:100CF2003108B73D3F08AE00AF01B001B1012E0887
:100D0200BA072F08BB3D3008BC3D3108BD3D083055
:100D1200B435B50DB60DB70D890B892E2708F00035
:100D22002A0882319722853171082000BF0070089D
:100D3200BE003E08B4073F08B53D0030B63DB73DA2
:100D42002608F0002B088231972285317108200095
:100D5200BF007008BE003E08B4073F08B53D003032
:100D6200B63DB73D0830B435B50DB60DB70D890B9C
:100D7200B42E2608F0002A088231972285317108A4
:100D82002000BF007008BE003E08B4073F08B53D12
:100D92000030B63DB73D2708F0002C08823197227B
:100DA200853171082000BF007008BE003E08BA07F6
:100DB2003F08BB3D0030BC3DBD3D2808F0002B087C
:100DC20082319722853171082000BF007008BE0071
:100DD2003E08BA073F08BB3D0030BC3DBD3D280878
:100DE200F0002C0882319722853171082000BF0063
:100DF2007008BE003E08AE003F08AF00B001B1016E
:100E02000830AE35AF0DB00DB10D890B022F2E0893
:100E1200BA072F08BB3D3008BC3D3108BD3D340840
:100E2200AE003508AF003608B0003708B100183000
:100E3200B136B00CAF0CAE0C890B192F2E08BA07C5
:100E42002F08BB3D3008BC3D3108BD3D0830B435EC
:100E5200B50DB60DB70D890B282F39083807AE002E
:100E6200AF01AF0D2E08823EBE00FF302F3DBF0006
:100E7200512F0130BA35BB0DBC0DBD0D890B3B2F77
:100E8200B71F442F452F462F3A140130B435B50D04
:100E9200B60DB70D890B472FFF30BE07FF30BF3DA0
:100EA200BC1F542F552F3A2FB801B71F592F5A2F55
:100EB200762FFF303405AE00FF303505AF00FF302E
:100EC2003605B0007F303705B100310830042F04F9
:100ED2002E0403196D2F6E2F712FB801B80A762FC9
:100EE2003A1C742F752F762F6E2F380803197A2F1C
:100EF2007B2FA32F0130BA070030BB3D0030BC3D31
:100F02000030BD3D3D1C862F872FA32F3A08AE002F
:100F12003B08AF003C08B0003D08B1000130B20010
:100F2200B137B00CAF0CAE0CB20B912F3108BD0033
:100F32003008BC002F08BB002E08BA000130BE07E3
:100F42000030BF3D3F08803AAE0080302E02031DC4
:100F5200AC2FFF303E02031CAF2FB02FBA2F7F30D1
:100F62002000BD008030BC000030BB000030BA0061
:100F7200E52F20003F08803AAE0080302E02031D8C
:100F8200C42F01303E020318C72FC82FD32F0030C1
:100F92002000BD000030BC000030BB000030BA00B1
:100FA200B301E52F20003E08B900FF30BA05FF303B
:100FB200BB057F30BC050030BD05391CE12FE22F97
:100FC200E32FBC173936BD003308AE002E08BD042E
:100FD2003D08A9003C08A8003B08A7003A08A60063
:100FE2000800FC01FD012000E601E701E801E9013A
:100FF200EA01EB01EC01ED0120008231FE2A1634F8
:101002000234003400340034003400340034B33489
:061012000134003400343B
:020000040001F9
:04000E00E43FFF3E8E
:00000001FF
