:04000000803119280A
:100008007E1480310B1F09280A2817282100111C8B
:100018000E280F2817282000111C13281428172829
:100028008131192180317E10090080311B28F001AF
:10003800F101F201F301F401F5017E102000803195
:10004800CE28200021087102031D2C2820087002E8
:1000580003182F28302845287008023EFA0000307F
:10006800713DFB0003307B02FF3003197A0203184D
:100078003E283F2845287008023EF0000030713DB8
:10008800F10071082102031D4B2870082002031893
:100098004E284F286D287008FE3EFA00FF30713D4B
:1000A800FB007A087B0403195A285B286D2870081E
:1000B800FE3EFA00FF30713DFB007A087B0403190D
:1000C800662867286D287008FE3EF000FF30713DF5
:1000D800F1007108F7007008F6008031B320803114
:1000E80008002000AB002B08AA00AA0DAA0D2100C9
:1000F8001D0820002A0683392A0621009D001D14A8
:100108000D30890B8528000021009D149D188D282D
:100118008E288A281C082000A90021001B0820001E
:10012800A800080022008C018D017F3021008C007E
:10013800FF308D001F3023008C00FE308D002030F2
:1001480024008C00FF308D00210095130830220018
:100158009D0027009401950196018B150800FF303A
:10016800F6050330F7057708F9007608F800F93640
:10017800F80CF936F80C7808250098007608033949
:10018800F8000430F835890BC6281A08CF397804E6
:100198009A0008008031E720803125302000A8002F
:1001A8000030A90081318B2180318B170B1701306A
:1001B80080317520803120002908A1002808A0007E
:1001C800DB288031192881317D21803180319620CA
:1001D80080318131732180318131672180318131D2
:1001E8009721803181310021803181314021803156
:1001F80081315B218031080020009901613097002E
:10020800A83096001708F5001608F4009B30A800DF
:100218000130A90081318B2181312000111021008A
:1002280011143130200098000800200011107508C2
:10023800F7007408F60081312F218131200024084D
:1002480025040319282929292E2925088A00240884
:100258000A00813108002000181D332934293B2960
:100268001810770897007608960018143F29770821
:100278009700760896000800FF3020009B009A013E
:10028800911004309C000030A8000030A900813192
:1002980085218131080000340134003400340034F1
:1002A8000034003400348B340134003400348B10B3
:1002B8002100151700302000A8000030A900813166
:1002C8009121813108000C3025009A009C019B0186
:1002D80001309D0099019801F3309E050800033014
:1002E80021009E009B019C0105309D0020001113F8
:1002F8000800F030210099002200960121009801A1
:10030800080020002908A3002808A20008002000EF
:100318002908A5002808A400080020002908A7002B
:100328002808A6000800833022009700080008006B
:020000040001F9
:04000E00E43FFF3E8E
:00000001FF
